:100000000C945D000C9485000C9485000C94850084
:100010000C9485000C9485000C9485000C9485004C
:100020000C9485000C9485000C9485000C94360289
:100030000C9485000C9485000C9485000C9485002C
:100040000C94EC010C9485000C9485000C948500B4
:100050000C9485000C9485000C9485000C9485000C
:100060000C9485000C94850000000008000201003B
:100070000003040700000000000000000000000072
:10008000250028002B0000000000240027002A0083
:10009000040404040404040402020202020203032E
:1000A0000303030301020408102040800102040836
:1000B00010200102040810208B0411241FBECFEF72
:1000C000D8E0DEBFCDBF11E0A0E0B1E0EEE6FAE09F
:1000D00002C005900D92A430B107D9F721E0A4E049
:1000E000B1E001C01D92A933B207E1F710E0CDE500
:1000F000D0E004C02197FE010E942F05CC35D10726
:10010000C9F70E94F2020C9435050C94000090E0AF
:10011000FC01EC55FF4F249180579F4FFC018491C7
:10012000882399F090E0880F991FFC01EA57FF4F50
:10013000A591B491FC01E458FF4F859194918FB73C
:10014000F894EC91E22BEC938FBF089590E0FC01C2
:10015000E859FF4F2491FC01EC55FF4F3491FC010D
:10016000E057FF4FE491EE23C9F0222339F023300A
:1001700001F1A8F4213019F1223029F1F0E0EE0F5D
:10018000FF1FE458FF4FA591B4918FB7F894EC91FD
:10019000611126C030953E233C938FBF08952730D0
:1001A000A9F02830C9F0243049F7809180008F7D74
:1001B00003C0809180008F7780938000DFCF84B56B
:1001C0008F7784BDDBCF84B58F7DFBCF8091B0006E
:1001D0008F778093B000D2CF8091B0008F7DF9CF20
:1001E0003E2BDACF8E3008F08E508770806480937B
:1001F0007C0080917A00806480937A0080917A00FC
:1002000086FDFCCF809178009091790008953FB7EA
:10021000F89480910B0190910C01A0910D01B09187
:100220000E0126B5A89B05C02F3F19F00196A11D10
:10023000B11D3FBFBA2FA92F982F8827BC01CD0130
:10024000620F711D811D911D42E0660F771F881F8F
:10025000991F4A95D1F708958F929F92AF92BF92BE
:10026000CF92DF92EF92FF924B015C010E94070157
:100270006B017C010E9407016C197D098E099F09A1
:10028000683E734081059105A8F321E0821A910828
:10029000A108B10888EEC80E83E0D81EE11CF11C4D
:1002A00081149104A104B10429F7FF90EF90DF902D
:1002B000CF90BF90AF909F908F900895CF92DF9294
:1002C000EF92FF92CF93DF93EC01603282E07807E8
:1002D000CCF5653B710514F064EB70E0898128E88A
:1002E00030E0281B310987FD3395220F331F220F81
:1002F000331F6901330FEE08FF088A8128E532E0D9
:10030000281B310987FD3395220F331F220F331F1E
:10031000032E000C440B550B2C193D094E095F09A7
:10032000DB0177FF02C0B0E0A0E00E94EA0424EB0A
:1003300030E040E050E00E94C004C20ED31EE41E34
:10034000F51EB601E881EC3070F5298188E890E06F
:10035000821B910927FD9395880F991F880F991F7C
:10036000681779077CF02A8188E592E0821B910961
:1003700027FD9395880F991F880F991F6817790794
:100380000CF4CB010297880F991F4FB7F8942E2FCA
:1003900030E0F901EE0FFF1FE20FF31FE15FFE4FA8
:1003A000928381834FBFDF91CF91FF90EF90DF90D9
:1003B000CF900895892B79F41092800082E0809389
:1003C00081001092850010928400B19A80916F0094
:1003D000826080936F0008951F920F920FB60F9264
:1003E00011242F933F938F939F93AF93BF9380914B
:1003F000070190910801A0910901B0910A01309183
:10040000060123E0230F2D3758F50196A11DB11DDC
:10041000209306018093070190930801A09309019E
:10042000B0930A0180910B0190910C01A0910D01F4
:10043000B0910E010196A11DB11D80930B01909307
:100440000C01A0930D01B0930E01BF91AF919F914C
:100450008F913F912F910F900FBE0F901F90189585
:1004600026E8230F0296A11DB11DD2CF1F920F9235
:100470000FB60F9211242F933F934F935F936F9377
:100480007F938F939F93AF93BF93CF93DF93EF931C
:10049000FF9380910501C0910401D0E087FF24C043
:1004A0001092850010928400809105018F5F8093E7
:1004B000050180910501082E000C990B8C179D07F2
:1004C00024F4809105018C30C4F1809184009091D6
:1004D0008500049680349C4908F47AC08091840099
:1004E00090918500049676C080910501082E000C3D
:1004F000990B8C179D07C4F6E09105018E2FEE0F26
:10050000990BFC01EE0FFF1FE80FF91FE15FFE4F93
:10051000808186FFC9CFE09105018E2FEE0F990BE8
:10052000FC01EE0FFF1FE80FF91FE15FFE4F808116
:1005300060E08F730E94A600B7CF209184003091B5
:100540008500E09105018E2FEE0F990BFC01EE0F57
:10055000FF1FE80FF91FE15FFE4F81819281820F3B
:10056000931F9093890080938800E09105018E2F5E
:10057000EE0F990BFC01EE0FFF1FE80FF91FE15F73
:10058000FE4F808186FF11C0E09105018E2FEE0F96
:10059000990BFC01EE0FFF1FE80FF91FE15FFE4F03
:1005A000808161E08F730E94A600FF91EF91DF913F
:1005B000CF91BF91AF919F918F917F916F915F91FB
:1005C0004F913F912F910F900FBE0F901F90189554
:1005D00080E49CE990938900809388008FEF80935A
:1005E0000501E3CF789484B5826084BD84B58160D1
:1005F00084BD85B5826085BD85B5816085BD8091EE
:100600006E00816080936E00109281008091810065
:10061000826080938100809181008160809381005D
:10062000809180008160809380008091B10084601F
:100630008093B1008091B00081608093B000809180
:100640007A00846080937A0080917A00826080933F
:100650007A0080917A00816080937A0080917A009C
:10066000806880937A001092C100809133018C30B1
:1006700008F042C089E00E94870080913301282F52
:1006800030E0F901EE0FFF1FE20FF31FE15FFE4FB5
:100690009081907C99609083109234011092350182
:1006A0002CE0622F0E94230590E0829FB00111246C
:1006B00030E020E0AB01420F531FFA01EE0FFF1FA5
:1006C000E40FF51FE15FFE4F408146FD07C02F5F3D
:1006D0003F4F2C30310571F70E94DA01E091330170
:1006E0008E2F90E0FC01EE0FFF1FE80FF91FE15F76
:1006F000FE4F808180648083809136018C3008F0C9
:1007000042C08AE00E94870080913601282F30E0A5
:10071000F901EE0FFF1FE20FF31FE15FFE4F908123
:10072000907C9A60908310923701109238012CE0EF
:10073000622F0E94230590E0829FB001112430E0D7
:1007400020E0AB01420F531FFA01EE0FFF1FE40F31
:10075000F51FE15FFE4F408146FD07C02F5F3F4F11
:100760002C30310571F70E94DA01E09136018E2FAD
:1007700090E0FC01EE0FFF1FE80FF91FE15FFE4F55
:1007800080818064808364EB70E083E391E00E9469
:100790005E016DE270E086E391E00E945E0164EC30
:1007A00079E080E090E00E942C01F0E04F2EF0E034
:1007B0005F2E66246394712CBCE3EB2EF12CCFEA00
:1007C000CC2ED12CD5E0AD2EB12C8EE00E94F200C3
:1007D0004C0181E10E94F200EC018FE00E94F200E6
:1007E0008C0181E10E94F200A4014C0F5D1F57FFB4
:1007F00002C04F5F5F4F559547959801280F391FED
:1008000037FF02C02F5F3F4F35952795800E911E11
:1008100097FE03C06FEF861A960A95948794C80FC7
:10082000D91FD7FD2196D595C79584010C1B1D0BAB
:10083000CA01821B930B865A9F4F853B9105E0F0BE
:1008400080910201909103012417350754F5019618
:100850008D3391052CF4909303018093020104C021
:10086000F0920301E0920201609102017091030194
:1008700086E391E00E945E01065A1F4F053B110579
:1008800040F18091000190910101C815D90574F5DE
:100890000197853091058CF09093010180930001C0
:1008A00010C04217530704F70197181619069CF257
:1008B0007092030160920201D7CFB0920101A09221
:1008C0000001609100017091010183E391E00E94B9
:1008D0005E016AE070E080E090E00E942C0141142B
:1008E000510409F472CF0E9400006FCF8C169D0650
:1008F0004CF40196803B91057CF2D0920101C092AC
:100900000001DFCFCD2BE9F268E873E180E090E0F1
:100910000E942C01D6CF809104018C3048F591E0E3
:10092000980F909304018093330190E0FC01EE0F47
:10093000FF1FE80FF91FE15FFE4F88EB9BE09283FA
:100940008183809104018C30B8F491E0980F9093EA
:1009500004018093360190E0FC01EE0FFF1FE80FC9
:10096000F91FE15FFE4F88EB9BE09283818308953E
:100970008FEF80933301E5CF8FEF80933601089599
:10098000052E97FB1EF400940E94D70457FD07D054
:100990000E94F20407FC03D04EF40C94D704509547
:1009A0004095309521953F4F4F4F5F4F089590955B
:1009B0008095709561957F4F8F4F9F4F08950E944E
:1009C0001405A59F900DB49F900DA49F800D911DBF
:1009D00011240895B7FF0C94DF040E94DF04821BEA
:1009E000930B0895A1E21A2EAA1BBB1BFD010DC09B
:1009F000AA1FBB1FEE1FFF1FA217B307E407F507CF
:100A000020F0A21BB30BE40BF50B661F771F881FAA
:100A1000991F1A9469F760957095809590959B0140
:100A2000AC01BD01CF010895A29FB001B39FC001E9
:100A3000A39F700D811D1124911DB29F700D811D0A
:100A40001124911D0895991B79E004C0991F9617F0
:100A500008F0961B881F7A95C9F780950895EE0FC8
:0E0A6000FF1F0590F491E02D0994F894FFCF4C
:040A6E00B4002D00A3
:00000001FF
